:020000040800F2
:1000000068050020D5000008112F0008C52500084C
:1000100000000000000000000000000000000000E0
:100020000000000000000000000000005B2F00083E
:100030000000000000000000592F00085D2F00089C
:10004000E7000008E7000008E7000008E7000008F4
:10005000E7000008E7000008E7000008E7000008E4
:1000600000000000E7000008E7000008E7000008C3
:10007000E7000008E700000800000000E7000008B3
:100080000000000000000000000000000000000070
:10009000E700000800000000E7000008C92500088C
:1000A00000000000E7000008000000000000000061
:1000B000E7000008E7000008000000000000000062
:1000C0000348854600F064FC00480047393F0008BB
:1000D000680500200448804704480047FEE7FEE723
:1000E000FEE7FEE7FEE7FEE7F52F0008C100000887
:1000F00030B50B46014600202022012409E00D46C0
:10010000D5409D4205D31D469540491B2546954047
:1001100040191546521E002DF1DC30BDF0B51FB45C
:100120000646002082B005464024019100901BE065
:10013000019922460F46304600F090FA049A059B3A
:10014000801A994110D310461946224600F076FADB
:10015000361A8F410197224601200021009F00F0AE
:100160006DFA38184D4100902046641E0028DFDCEF
:10017000019B00982946324607B0F0BDF8B500242F
:100180002546002904DA0E46012400214042B141EF
:10019000002B04DA1E46002352420125B341FFF72B
:1001A000BDFF8C4617461E46AC4203D00025404298
:1001B0008D41AC46002C02D0002657429E4161463C
:1001C0003A46334601B0F0BDF0B51FB486B000200A
:1001D0000090019002900698069980B204900798CA
:1001E000090C02040014114307900027089D099888
:1001F00006913E463C4603900398A9B20204000CC7
:10020000039004982D0C154348430021224600F02A
:1002100015FAC719714110340E46402CECDB3846F4
:10022000029A00F00BFA009A019B80180090594145
:1002300002980191103002904028CCDB00980BB05E
:10024000F0BDD2B201E00270401C491EFBD27047E3
:100250000022F6E710B513460A4604461946FFF792
:10026000F0FF204610BD421C0178401C0029FBD144
:10027000801A7047024670B54A40D30FDB07400032
:100280002DD04A002AD0010E140E000212020919C4
:10029000400A520A8418E50104465443000A120A2F
:1002A0002E045043A4194219200CC543AA18120C5D
:1002B0000125AD03521C521912047F39240400D0C9
:1002C000521C104301D44000491EC2B20C06C009A2
:1002D0002018401C4008802A02D003E0002070BD96
:1002E00040084000002900DA0020184370BD70B5B6
:1002F00002464A40D50F40004A00ED074008520828
:10030000002814D0002A12D0C40DD30D41020120C0
:10031000C0055202490A520AE41A091812187D341B
:10032000914201D3641C00E04900002C01DA002056
:1003300070BD0023914201D3891A0343400849004C
:100340000028F7D100290AD0914202D10121C90722
:1003500005E0914201D2012101E00121C943E005FC
:10036000C018401900F09EF970BD420005D042004F
:10037000120E52428A4201DB00207047C90508185C
:1003800070470000F0B507460846584087B0C00FD8
:10039000049048000E46590040084908BC1A88419C
:1003A00005D2384631461E4617460B4602465800CF
:1003B000400810434CD0300D039040055900400DCB
:1003C000490D0590401A0290402872DA1803012165
:1003D000000B09050843019004980092002805D0FD
:1003E00001995242002088410092019002984021D8
:1003F0000A1A0199009800F021F905460C466B464F
:1004000007CB00F03CF9C0197141039A0E0D00238F
:10041000D71756401A467A40164344D0049A002A09
:100420002DD0029A012A039A15DC1205C01A9141B7
:1004300001263605001C7141D20F059ED20700939C
:10044000019202962A46234600F07AF907B0F0BDE1
:1004500038463146FAE71605224A0F46B218C01A46
:10046000B74101210905001C4F4100187F41114689
:1004700018187941E20F10436D19644113E0E20747
:100480006D0815436408C2071443039A0126120538
:10049000C01A91413605001C7141CE074008304317
:1004A0004908C01851412A46234600F03CF9CDE7DF
:1004B000FFE7049801224000C117121A00238B4164
:1004C00004983146C417381AA141EEE730B401242C
:1004D000E407634030BC55E730B40124E4076140D1
:1004E00030BC4FE70000E0FFF0B51FB488B00B99B7
:1004F0000998002448400999C00F4900490809910A
:10050000C0070B990090490049080B910999089878
:10051000A64608431CD00B990A98084318D009989E
:1005200001244000420D4800410D099824050003B4
:10053000000B204309900B980003000B20430B9005
:1005400050181C494018002201901446104605E03E
:10055000002001460DB0F0BD032801DA034600E09B
:1005600003239C46C11A0AAE0AE05F0008ADED5BAA
:100570004F00F75B7D430027AA187C41491C5B1E96
:100580006145F2DD410004AB5A522104120C0A43CA
:10059000240C401C0828DFDB01980290009970466B
:1005A00001910090059B049A0799069800F0C8F8FD
:1005B000D0E700000DFCFFFFC217C10F504010B57F
:1005C0004018CA079623002100F074F810BD10B53A
:1005D00000229623114600F06DF810BDC20FD2071D
:1005E000400040080BD0C10D0723DB01C9184002B1
:1005F0000905400A1143C208400711437047002013
:1006000001467047CB0FDB07490010B54908024689
:100610000A4307D00A0D07240903E401090B121B42
:10062000002A01DC002010BDC900440F0C43C100AA
:10063000E018D205801800F035F810BD10B5202A5A
:1006400004DB0146203A9140002010BD9140202358
:100650009C1A0346E3401943904010BD10B5202A70
:1006600004DB0846203AD040002110BD0B46D340A1
:10067000D0402024A21A91400843194610BD10B55D
:10068000202A06DBCB170846203A1041C1170B433E
:1006900006E00B461341D0402024A21A91400843A3
:1006A000194610BD002904DA401C490001D1400858
:1006B0004000704770B40024050C05D110240004DC
:1006C00002D1002921D01124050E01D100020834E5
:1006D000050F01D10001241D850F01D18000A41C4C
:1006E000002801DB4000641C002908D020252E1BB7
:1006F0000D46F540A14000D00121294308430106E1
:100700001B1B000ADB1D02D5002070BC7047DB05F7
:10071000181880180029F8DA401C4900F5D170BC7F
:1007200040084000704710B5002B08DA0024401C38
:10073000614192185B411A4301D14008400010BD4D
:10074000F0B51FB482B005460C0003D0084602F095
:10075000AFFE02E002F0ACFE2030024600902146DF
:100760002846FFF76BFF049B059A04460F46184383
:100770001143084314D0184610431BD00098402161
:100780000A1A18460599FFF769FF05460E46009AB2
:1007900005990498FFF752FF084305D0012004E0B3
:1007A0002046394607B0F0BD0020C11705430E436F
:1007B0002C43374300990E986305401A7905E40AE3
:1007C00000220C43FD0A0A3002D500200146E9E769
:1007D0000105101969410C9C0D9D00196941FFF735
:1007E000A2FFDFE7F0B50C465C4085B0E40FE407FC
:1007F00003944C00002664085900944649080246B8
:100800000296224321D062460A431ED06200570D51
:100810004A000E032303550D012402462C492405EA
:10082000781B1B0B360B4018234326436146009070
:100830001C46501AB44103D30098401C009002E0BB
:10084000921800985B41002803DA0020014605B0A9
:10085000F0BD0020012109050746864611E06446E7
:100860001D46141BB54106D36546521BB341744661
:1008700007430C43A646CD07400849082843921871
:100880005B4105460D43EAD11046184313D060463C
:10089000194650407140084306D06046101AB341D3
:1008A00006D20122002306E000220123DB0702E03A
:1008B0000122D2435310009874460105381C61414F
:1008C000029C039D00196941FFF72DFFBFE700005F
:1008D000FD03000070B54B005B0803430BD04B00D9
:1008E0005C0D002633466542B341D417AD1AA341CF
:1008F00002DB0020014670BD12053018514170BD69
:100900000EB5C217C10F5040CA0740180021054B51
:100910000293019200910A460B46FFF711FF03B0C4
:1009200000BD0000330400004A0009030123090B45
:100930001B0519430A4B10B5520D9A4202DA0020EA
:10094000014610BD064B34339A4203DC9A1AFFF776
:1009500085FE10BD034BD218FFF770FE10BD0000DE
:10096000FF030000CDFBFFFF10B5002904DB0124CD
:10097000E40740428C412146002B04DB1C46012346
:10098000DB075242A341994200D1904210BD0000C2
:10099000064C0125064E05E0E36807CC2B430C3CD2
:1009A00098471034B442F7D3FFF78EFBA84B0008EA
:1009B000C84B0008FEB500231A461B1A8A4103DB08
:1009C0000020014603B0F0BD4A000D0301212D0BAC
:1009D0000905520D0D43D10702D100186D41521E79
:1009E0005110FF31FF310131002704463E463846A1
:1009F000009701910246012100200905FFF72EFE14
:100A0000C3197141F818324684468E464A41614600
:100A10002846611A904104D36046241A95417646CF
:100A20001F46241900986D41401C00903428E1DDD8
:100A3000F91930467041091BA84103D20022D24364
:100A4000134601E00022134601980105381C71414C
:100A5000FFF769FEB6E70000F8B501220821384823
:100A600000F0AAFDD02000F0F9FB0446224635A193
:100A7000394802F009FD3848FFF7F5FB012582B23D
:100A80002D032B463449354801F02AFD602C02D055
:100A900000F0AEFCF8BDB621E02000F0A2FC00F0B2
:100AA00011FCC007FBD100F0A5F8A02000F08BFCE2
:100AB000082000F03BFC602000F077FC082000F0EC
:100AC00066FC012000F04EFCF42000F0C7FB064657
:100AD000F22000F0C3FB04023443224620A11E484A
:100AE00002F0D2FC1C48FFF7BEFB82B22B461A492B
:100AF0001A4801F0F5FC200A400701D01FA000E0D1
:100B00001FA00090E006400F01D01CA300E01CA332
:100B10002006400F01D019A200E019A219A10E4829
:100B200002F0B2FC0C48FFF79EFB82B22B460A494A
:100B30000A4801F0D5FC032000F006FCF8BD0000D7
:100B4000000400500D0A0D0A49443A20307825303F
:100B500032580D0A00000000DC0000205C0000207C
:100B60004D6561737572656D656E74732073746124
:100B70007475733A20253034580D0A004F4E00002A
:100B80004F46460054656D70657261747572653AC2
:100B90002025730D0A50726573737572653A2025AE
:100BA000730D0A48756D69646974793A2025730D6F
:100BB0000A00000010B5044600F06EFA2146FFF767
:100BC00096FBFFF70BFD074A074B03F071FA002273
:100BD000064BFFF781FC0022054BFFF785FCFFF772
:100BE00011FD10BDEBE2361AC05BC83F0000F03FBC
:100BF00040A5E54070B5B549882000F05CFBB34CDA
:100C0000B3A12288B64802F03FFCB548FFF72BFBA2
:100C1000012682B236033346B149B24801F060FC86
:100C2000A11C8A2000F040FB0222A25EAEA1AC48CB
:100C300002F02AFCAA48FFF716FB82B23346A84905
:100C4000A84801F04DFC211D8C2000F02DFB042252
:100C5000A25EA9A1A24802F017FCA148FFF703FB7E
:100C600082B233469E499F4801F03AFCA11D8E2076
:100C700000F021FBE288A4A1994802F005FC984805
:100C8000FFF7F1FA82B233469549964801F028FC05
:100C900021460831902000F007FB0822A25E9EA1A9
:100CA0008F4802F0F1FB8E48FFF7DDFA82B233463F
:100CB0008B498C4801F014FC21460A31922000F047
:100CC000F3FA0A22A25E98A1854802F0DDFB84486F
:100CD000FFF7C9FA82B233468149824801F000FC2D
:100CE00021460C31942000F0DFFA0C22A25E92A182
:100CF0007B4802F0C9FB7A48FFF7B5FA82B2334667
:100D00007749784801F0ECFB21460E31962000F03F
:100D1000CBFA0E22A25E8CA1714802F0B5FB70489E
:100D2000FFF7A1FA82B233466D496E4801F0D8FB55
:100D300021461031982000F0B7FA1022A25E86A159
:100D4000674802F0A1FB6648FFF78DFA82B233468E
:100D50006349644801F0C4FB214612319A2000F037
:100D6000A3FA1222A25E80A15D4802F08DFB5C48CE
:100D7000FFF779FA82B2334659495A4801F0B0FB7D
:100D8000214614319C2000F08FFA1422A25E7AA131
:100D9000534802F079FB5248FFF765FA82B23346B6
:100DA0004F49504801F09CFB214616319E2000F02F
:100DB0007BFA1622A25E74A1494802F065FB4848FE
:100DC000FFF751FA82B233464549464801F088FBA5
:100DD000A12000F043FA207602466FA1404802F0BD
:100DE00053FB3F48FFF73FFA82B233463C493D4848
:100DF00001F076FB21461A31E12000F055FA1A2263
:100E0000A25E69A1364802F03FFB3548FFF72BFA96
:100E100082B233463249334801F062FBE32000F0EE
:100E20001DFA2077024664A12D4802F02DFB2C48C4
:100E3000FFF719FA82B2334629492A4801F050FBDC
:100E4000E42000F00BFA0501E52000F007FA0007A6
:100E5000000F0543E5832A465BA1214802F014FBFD
:100E60001F48FFF700FA82B233461D491D4801F0C2
:100E700037FBE62000F0F2F90501E52000F0EEF97D
:100E80000009054325842A4653A1154802F0FCFABF
:100E90001348FFF7E8F982B233461149114801F0CF
:100EA0001FFBE72000F0DAF9214620318870227F0D
:100EB0004DA10B4802F0E8FA0948FFF7D4F982B2D5
:100EC00033460749074801F00BFB70BD4001002085
:100ED0004449475F54313A2025750D0A000000004F
:100EE000DC0000205C0000204449475F54323A2077
:100EF00025640D0A000000004449475F54333A203E
:100F000025640D0A000000004449475F50313A2033
:100F100025750D0A000000004449475F50323A2011
:100F200025640D0A000000004449475F50333A2011
:100F300025640D0A000000004449475F50343A2000
:100F400025640D0A000000004449475F50353A20EF
:100F500025640D0A000000004449475F50363A20DE
:100F600025640D0A000000004449475F50373A20CD
:100F700025640D0A000000004449475F50383A20BC
:100F800025640D0A000000004449475F50393A20AB
:100F900025640D0A000000004449475F48313A20AB
:100FA00025640D0A000000004449475F48323A209A
:100FB00025640D0A000000004449475F48333A2089
:100FC00025640D0A000000004449475F48343A2078
:100FD00025640D0A000000004449475F48353A2067
:100FE00025640D0A000000004449475F48363A2056
:100FF00025640D0A0000000038B500F06BF9694661
:10100000FD2000F031F96846008881B220484B226B
:1010100000689202801A8A031E49CB8B0C461B057E
:10102000D31A20228A5E203442439A1A01239B035A
:10103000D2180223E356D21343439C120B7F43433F
:10104000D8120123DB03C0184443A0129B01C0182F
:101050001A23CB5E584301235B03C018801342431D
:10106000D0134043097EC01148430011101A0028D4
:1010700000DA002019210906884200DD0846001325
:10108000FFF79AFA0921C943FFF76FF938BD00004D
:101090000000002040010020F0B587B000F01AF9F0
:1010A00003A9F72000F0EDF80398000903900690DB
:1010B0006348644A00685114C51784184D4120469E
:1010C000294622462B46FFF77FF85F4B10220591F9
:1010D00004909A5ED317FFF777F8019100905A4871
:1010E0000E27C75F2246F9172B463846FFF76CF8E4
:1010F000C20B4904114342040098019B1218594144
:101100000092019150480C21415E009AC90001985B
:10111000121C4141009201914B4B0A229A5E0599A3
:10112000D3170498FFF750F80A06070A0E1246492B
:101130000820085E1743C11722462B46FFF744F8E4
:10114000020D0903000311433C184E4135460122AC
:10115000D2032946201C51413B4A0023D288FFF785
:1011600033F84C10CD172046284367D0012106984C
:101170000905081A4108C6070098019A301A9141DA
:10118000324A0023FFF720F822462B46FEF7F6FFEF
:1011900006460F462C481622825EF804740B044360
:1011A000D1177D1310462B462246FFF70DF82B462C
:1011B0002246FFF709F8CA01440E14434D1622488F
:1011C0001421415E3246C817844608463B466146B4
:1011D000FEF7FAFF4A03C00C1043CA1401920090B4
:1011E0003319009A6F410198991847410A0A380645
:1011F000024315491220085E3F12C317040F19015C
:101200000001214316184F41F0B2114902F067F96D
:10121000104A0023FEF7B2FF04463906300A08439D
:101220007D223912D2000023FEF7CEFF2018FFF7EF
:10123000CEF90949FFF75BF807B0F0BD0020FBE7E6
:1012400000000020000CFEFF40010020350C0000D3
:10125000E1F50500A08601000000C84210B5014676
:10126000EC2001F07FFD10BD10B50C460146224672
:10127000EC2001F091FD2088010A00020143218049
:1012800010BD10B50C4601462246EC2001F09AFD37
:101290002068FF22010212020240090E00061143DB
:1012A000000A0143216010BD10B50A460146EC203A
:1012B00001F072FD10BD10B50A460146EC2001F0A8
:1012C0006BFD10BD10B5F320FFF7C8FF09210840E2
:1012D00010BD000038B56946FA20FFF7D2FF00982C
:1012E000000900900E4AC30811884C001B1B022401
:1012F000145F6343DB0A0009401A04214043515E36
:10130000000B4843800B07491818086081004018FB
:1013100080300012FFF750F90349FEF7E8FF38BDAF
:1013200040010020000000200000C84210B5044623
:10133000F520FFF793FFE32108401C2121400143E2
:10134000F52000F04EF810BD10B50446F420FFF76C
:1013500085FF80088000A107890F0143F42000F079
:1013600040F810BD10B50446F220FFF777FFC00823
:10137000C0006107490F0143F22000F032F8F42069
:10138000FFF76CFF0146F42000F02BF810BD10B5FC
:101390000446F420FFF762FFE32108401C212140AE
:1013A0000143F42000F01DF810BD10B50446F420F0
:1013B000FFF754FFC006C00E610949010143F42044
:1013C00000F00FF810BD10B50446F520FFF746FFFA
:1013D000C006C00E610949010143F52000F001F883
:1013E00010BD10B50A460146EC2001F001FD10BD0C
:1013F00010B500220821024800F0DEF810BD000000
:1014000000040050704770B50024014620314A792D
:10141000022A03D00421C163012418E00268136882
:101420000E25AB431360026813685B085B00136012
:10143000436C1C22134001252A469A40036C5A60D3
:101440004D7100220A71816B002900D08847204627
:1014500070BD70B5044600F0B5F80546601C00D0BC
:10146000641C00F0AFF8401BA042FAD370BD00002E
:10147000F0B500228EE001249440A4462340002BC6
:101480007ED04C68022C01D0122C0CD1D408A400C0
:1014900027183D6A5407E40E0F26A640B5430E698F
:1014A000A6402E433E624C68012C05D0022C03D08E
:1014B000112C01D0122C11D1856854000326A640AE
:1014C000B543CE68A6402E43866044686546AC436B
:1014D0000D79ED06ED0F95402543456007685400F2
:1014E0000325A540AF430E79B607B60FA6403E438D
:1014F0000660C668AE438D68A5403543C5604C683C
:10150000E40046D5264C666B01252E43666395089C
:10151000244CAD002D19AF689407240F0F26A64068
:10152000B74305263607B04201D100260FE01E4E14
:10153000B04201D101260AE01C4EB04201D1022680
:1015400005E01B4EB04201D1052600E00626A6406C
:101550003E43AE60174D2C689C434E68F60300D5A1
:101560001C432C606C689C434E68B60300D51C433A
:101570006C60AC689C434E68F60200D51C4300E0EA
:1015800007E0AC60EC689C434E68B60200D51C4393
:10159000EC60521C0B681C46D44000D06BE7F0BDD9
:1015A00000100240000001400004005000080050FC
:1015B000001C005000040140002A01D081617047E6
:1015C00081627047014800687047000004000020F5
:1015D00070B5024640325378202B01D0022070BDF6
:1015E0001378012B19D0012414702423537003683D
:1015F0001D68A5431D6003681D682603B5431D6073
:1016000003681D680D431D60006801682143016087
:10161000202050700020107070BD022070BD70B589
:10162000024640325378202B01D0022070BD13783F
:10163000012B18D0012515702423537003681C68F2
:10164000AC431C6003681C680F263602B4430902D1
:10165000214319600068016829430160202050700F
:101660000020107070BD022070BD7047704770B5CB
:10167000026893691168DB43DC0508D4CC43240677
:1016800005D4446C01252C4344642C02D4615A05D2
:1016900009D4CA43120606D4426C08242243426489
:1016A000E2010468E2619A0509D4C943090606D437
:1016B000416C02221143416411020268D161416C04
:1016C0000B22114201D001F031F870BD026891691E
:1016D0001268436B002B00D018477047704700001A
:1016E00070B50446002C06D02546403568780026A3
:1016F000002802D005E0012070BD2E70204600F0C9
:10170000BFF9242068702068016849084900016019
:101710000F21606809068843216808612068826893
:101720000121C9038A438260E068012809D021228F
:10173000A0689202104322689060E068022805D0F9
:1017400008E0A068226808439060F6E7012022685C
:10175000C0025060206842680F4B1A434260206804
:10176000C2688A43C260616920690843A1690902AD
:1017700008432168C860216AE0690843216808605D
:1017800020680168012211430160666420206870AE
:101790002663AE70002070BD00800002704700001C
:1017A000FFB583B00446254640356878202802D02E
:1017B000022007B0F0BD0C98002815D00D98002825
:1017C00012D02878012814D001202870FFF7FAFEE3
:1017D000064601221923D1032046009601F04AFA59
:1017E000002808D00120E4E70120400260640120C5
:1017F000DFE70220DDE7222068704020A870002784
:1018000067640C9860620D98608567630E9800901D
:10181000019604A90EC9204601F008F9002802D05B
:101820002F700120C5E7618D3848FF2909D9FF22B3
:101830002285012300901B062046049901F006FA38
:101840000AE0618D21850090208D0123C2B25B06E4
:101850002046049901F0FAF900960022042120465E
:101860000E9B01F007FA002801D00120A1E72068B3
:10187000406A616A0870606A401C6062208D401E88
:1018800080B22085618D491E6185618D002924D03B
:10189000002822D100960022802120460E9B01F0D4
:1018A000E9F9002801D0012083E7608DFF2809D9DC
:1018B000FF22228501231B0600972046049901F090
:1018C000C5F90AE0608D20850097208D0123C2B202
:1018D0005B062046049901F0B9F9608D0028BBD160
:1018E000324620460E9901F0ECF9002801D0012083
:1018F0005FE720682021C16120684268044B1A40DC
:1019000042606970AF702F70002052E700240080A1
:1019100000E800FEFFB583B00446254640356878F0
:10192000202802D0022007B0F0BD0C98002815D066
:101930000D98002812D02878012814D00120287092
:10194000FFF740FE074601221923D10320460097E6
:1019500001F090F9002808D00120E4E701204002BE
:1019600060640120DFE70220DDE72120687040206D
:10197000A870002666640C9860620D9860856663A6
:101980000E980090019704A90EC9204601F088F82E
:10199000002802D02E700120C5E7608DFF2809D9EC
:1019A000FF22228501231B0600962046049901F0A0
:1019B0004DF90AE0608D20850096208D0123C2B28A
:1019C0005B062046049901F041F93A4620460E99FB
:1019D00001F09EF9002801D00120A4E7606A216887
:1019E00000788862606A401C6062608D401E60857D
:1019F000208D401E80B22085618D002924D00028D2
:101A000022D100970022802120460E9B01F032F95E
:101A1000002801D0012086E7608DFF2809D9FF2228
:101A2000228501231B0600962046049901F00EF939
:101A30000AE0608D20850096208D0123C2B25B06EE
:101A40002046049901F002F9608D0028BDD13A4684
:101A500020460E9901F035F9002801D0012062E7F7
:101A600020682021C16120684268044B1A4042600E
:101A70006970AE702E70002055E7000000E800FE8F
:101A800010B586B00446142101A8FEF7E1FB144905
:101A90002068884222D1134CE16A01200143E162AF
:101AA000E16A014000910321490201911221029152
:101AB0000390032104910590052001A90007FFF779
:101AC000D7FCA06B012149050843A0630022114601
:101AD000172000F055F8172000F048F806B010BDA8
:101AE00000540040001002407047704702480168EF
:101AF000491C0160704700000400002010B500245C
:101B000007480168402211430160002000F00AF8F4
:101B1000002801D0012401E000F01CF8204610BD8F
:101B20000020024070B50546002409487D21C90007
:101B30000068FEF7DDFA00F057FC002801D0012410
:101B400004E000222946501E00F01AF8204670BD1D
:101B5000080000200448416B012211434163816B5E
:101B6000020411438163704700100240C106C90E90
:101B700001208840014908607047000000E100E052
:101B800010B501F0C7F910BDF8B504462078564DE0
:101B900080067FD5002654484038806BC00006D4AC
:101BA00051484038816B02041143816301264F483C
:101BB0000168C90512D40168821511430160FFF75D
:101BC00001FD074606E0FFF7FDFCC01B642801D9B4
:101BD0000320F8BD45480068C005F4D542484038A8
:101BE00000680321090508406268114081420AD05B
:101BF0009003800F032806D13B48403800688003DB
:101C000001D50120F8BD28690321090408400028F6
:101C100021D00A4082421ED0207880061BD5286938
:101C200088432A690121C9040A432A612A698A432F
:101C30002A612861C0050ED5FFF7C4FC074607E0FE
:101C4000FFF7C0FCC11B2A48814201D90320F8BD1F
:101C500028698005F4D560688103890F032908D1BC
:101C6000214B403B19680322120591431040014368
:101C70001960286903226168120411400843286131
:101C8000012E07D118484038826B01048A4300E0D6
:101C900000E082632078800705D5E8680C2188433E
:101CA000A1680843E8602078400706D5E86803216A
:101CB00089028843E1680843E8602078000706D578
:101CC000E86803210903884321690843E860207814
:101CD000000606D5E8680321890488436169084342
:101CE000E8600020F8BD0000401002400070004095
:101CF00088130000F8B504460E46002C12D05D484B
:101D00000068C007C00FB0420ED25A4801684908A7
:101D10004900314301600068C007C00FB04203D0E2
:101D20000120F8BD0120F8BD2078534F800705D56C
:101D3000F868F0218843A1680843F8602078C0075C
:101D400060D06068022808D003280BD001280ED08C
:101D50003968890510D40120F8BD396889030BD48E
:101D60000120F8BD3968890106D40120F8BD396821
:101D7000490701D40120F8BDF968890889000143A9
:101D8000F960FFF71FFC0546606802280CD00328A5
:101D900018D0012824D031E0FFF714FC411B37484C
:101DA000814201D90320F8BDF8680007800F02289E
:101DB000F2D127E0FFF706FC411B3048814201D9F0
:101DC0000320F8BDF8680007800F0328F2D119E05E
:101DD000FFF7F8FB411B2948814201D90320F8BDD8
:101DE000F8680007800F0128F2D10BE0FFF7EAFB4B
:101DF000411B2248814201D90320F8BDF868000741
:101E0000800FF3D11B480168C907C90FB1420BD934
:101E1000016849084900314301600068C007C00FEC
:101E2000B04201D00120F8BD2078400706D5F868FF
:101E3000072109028843E1680843F8602078000719
:101E400007D5F8680721C90288432169C9000843FA
:101E5000F86000F03FF8F968094A0906090F515C7B
:101E6000C840084908600020FFF75CFE0028DAD16E
:101E7000F8BD00000020024000100240881300005E
:101E8000F44A00080800002001480068704700007C
:101E90000800002000B5FFF7F7FF0449C968044AAD
:101EA0004905490F515CC84000BD000000100240C8
:101EB0000D4B000800B5FFF7E7FF0449C968044A65
:101EC0008904490F515CC84000BD00000010024069
:101ED0000D4B000810B51C4AD1680C230846184069
:101EE00004280BD0082810D00C2810D0506800040B
:101EF000410F491C0120C003884010BD1068C00676
:101F000001D5124810BD124810BD124810BD8802FC
:101F1000114B000F185C0902890F491CD368DB03C1
:101F200004D50C4A5043FEF7E3F810BD1268D20600
:101F300004D5064A5043FEF7DBF810BD044A50436F
:101F4000FEF7D6F810BD00000010024000093D0069
:101F50000024F40000127A00044B0008FEB5044689
:101F6000002C0FD0F74DEE680C200640EF680120E2
:101F7000000407402078C00753D0082E08D00C2E4C
:101F800002D00DE00120FEBD01200004874207D1F0
:101F90002868800345D56068002842D10120FEBD35
:101FA000012061680004814203D12968014329604E
:101FB00015E0052301221B049204994206D12968E9
:101FC0001143296029680143296008E02968814399
:101FD0002960296801400091286890432860606862
:101FE00000280FD0FFF7EEFA019007E0FFF7EAFABA
:101FF0000199401A642801D90320FEBD2868800396
:10200000F4D50EE0FFF7DEFA019007E0FFF7DAFA09
:102010000199401A642801D90320FEBD2868800375
:10202000F4D42078800761D5E068810604D52A6859
:1020300020210A432A6088430921042E0DD00C2E4A
:1020400001D1002F09D000283ED02A688A430243DC
:102050002A60FFF7B7FA07462AE02A68520701D537
:1020600000281CD06A681F231B029A4323691B02A5
:102070001A436A602A688A4302432A60FFF72AFFEC
:102080000146E8680006020FAF48805CC140AF48D7
:1020900001600020FFF746FD0028BED126E00120A8
:1020A000FEBDFFF78FFAC01B022801D90320FEBD39
:1020B00028684007F5D568681F210902884321690F
:1020C00009020843686011E0286840084000286061
:1020D000FFF778FA074606E0FFF774FAC01B0228FC
:1020E00001D90320FEBD28684007F5D42078C0063A
:1020F00063D5002E0BD0A06900284BD02868FF21A3
:10210000013108432860FFF75DFA074630E0286890
:10211000800502D5A069002821D0686807214903FD
:102120008843216A084368606868217F0002000ACA
:10213000090608436860206A410B491C0120C0035E
:102140008840E96809060A0F7F49895CC8407F49D1
:1021500008600020FFF7E6FC0028C3D12DE0012035
:10216000FEBDFFF72FFAC01B022801D90320FEBDD8
:1021700028688005F5D56868072149038843216AE6
:10218000084368606868217F0002000A0906084366
:10219000686012E02868FF21013188432860FFF75A
:1021A00011FA074606E0FFF70DFAC01B022801D915
:1021B0000320FEBD28688005F5D42078644F000711
:1021C00029D56069002813D0386901210843386196
:1021D000FFF7F8F9019007E0FFF7F4F90199401AC9
:1021E000022801D90320FEBD38698007F4D512E02A
:1021F0003869400840003861FFF7E4F9019007E0D2
:10220000FFF7E0F90199401A022801D90320FEBD29
:1022100038698007F4D42078400774D500200090F6
:10222000A86BC00006D4A86B012109070843A86366
:102230000120009047480168C90514D4024610687F
:10224000911508431060FFF7BDF9019007E0FFF713
:10225000B9F90199401A642801D90320FEBD3D480F
:102260000068C005F3D5FF20A2680130824203D187
:102270003969014339611BE001218902002A0AD032
:1022800005231B029A420DD13A690A433A61396922
:10229000014339610CE03A6982433A613869884305
:1022A000386105E03A6982433A61386988433861A8
:1022B000A068002810D0FFF785F9019008E0FFF72B
:1022C00081F90199411A2448814201D90320FEBDB8
:1022D00038698005F3D50FE0FFF774F9019008E045
:1022E000FFF770F90199411A1B48814201D9032077
:1022F000FEBD38698005F3D40098012803D1A96B8D
:1023000000078143A963606A00286BD00C2E50D06F
:1023100001273F06022806D02868B8432860FFF747
:1023200051F9044641E02868B8432860FFF74AF9AC
:10233000064613E0FFF746F9801B02280ED903205A
:10234000FEBD000000100240F44A00080800002012
:10235000401002400070004088130000286880018F
:10236000E8D4A16AE06A226B0143E868FD231B04FC
:10237000984302431143E960286838432860FFF717
:1023800021F9044606E0FFF71DF9001B022801D9D8
:102390000320D5E728688001F5D523E0FFF712F97F
:1023A000001B022801D90320CAE728688001F5D460
:1023B00018E0012814D0E86801210904A26A01404C
:1023C00091420BD10F218904E26A0140914205D16B
:1023D000032189050840216B884203D00120AFE723
:1023E0000120ADE70020ABE710B50949401E884247
:1023F00001D9012010BD074C60610321081F00F0C6
:1024000089FD0020A06107202061002010BD000090
:10241000FFFFFF0000E000E010B50446002C03D0F1
:10242000606F002802D007E0012010BD002170205D
:102430000155204600F028F82420606720680168D4
:10244000490849000160204600F096FE012819D095
:10245000606A002802D0204600F0F6FD206841683E
:102460000922D20291434160206881682A22914367
:10247000816020680168012211430160204600F05C
:1024800049FE10BD012010BD10B586B004461421D0
:1024900001A8FDF7DDFE0F492068884218D10E48DB
:1024A000816B0122520411438163C26A02210A43F3
:1024B000C262C06A08400090C020019002910020D2
:1024C000039003210491059001A90448FEF7D0FF71
:1024D00006B010BD0044004000100240000400504F
:1024E000FFB583B004460E461546606F202802D023
:1024F000022007B0F0BD002E0AD0002D08D0012028
:10250000A1680003814209D12069002802D005E0BA
:102510000120EEE7F00701D00120EAE72046603015
:102520000290007C012818D002980121017400203B
:10253000E06721206067FFF745F8019027464037A4
:102540003D827D820120A1680003814202D1206981
:10255000002804D03546002618E00220C9E70025EF
:1025600014E006980090002280212046019B00F094
:1025700059FF002801D00320BBE7002D15D0287893
:1025800021686D1C8862788A401E7882788A0028CB
:10259000E7D106980090002240212046019B00F0E0
:1025A00041FF002808D00320A3E73088B61CC005EF
:1025B0002168C00D8862E6E720206067029900204C
:1025C000087496E7FEE7000010B5074800688069C8
:1025D0004005400F03D00448FFF749F810BD0248FA
:1025E000FFF774F810BD00001000002010B5806ADD
:1025F0000021826B9163C26B9163014640314A783E
:10260000602A02D0FFF76AF810BD20224A70FFF757
:102610002CF810BDF0B500220346CE074033282425
:10262000B025002E05D042225E782746B74300D061
:10263000F2228E0705D5442632435B789C4300D0B6
:102640002A434B0701D5B8231A4311238B4301D1E9
:1026500090231A4312248C4301D120210A43002CD9
:1026600001D140210A430068016891430160F0BD37
:1026700001688A69D243920701D400228A62006805
:102680008169C943C90703D081690122114381616E
:102690007047F8B5044625464035687828218143BF
:1026A000206804D00821C16100202870F8BD81692C
:1026B000C903CF0F8169FE230E0C1E4081688A0575
:1026C000920DC16819408C46E16802290BD00421A3
:1026D0002046FFF79FFF00202870324639462046EB
:1026E000FEF7C4FFF8BD0621D3090E400B409E4201
:1026F0000FD1A16C491CA164A16C0229F2D1002167
:10270000A1640823C361297039462046FEF7AEFF55
:10271000F8BD664604212046FFF77CFF00202870A4
:10272000324639462046FEF7A1FFF8BDF8B504460B
:102730002546403568780026AE702E4AE2626685EE
:10274000626C0A4362642027282825D0292823D0D8
:102750002A2821D007212046FFF75CFF68786028EF
:1027600000D06F7026636663206801684A042249BE
:102770001CD5026801239B039A430260A06B0028CA
:1027800009D081632E70A06BFEF73DFE002802D0B9
:10279000A06B816B8847F8BD03212046FFF73AFF05
:1027A00028206870266315486063DDE7026812041C
:1027B00012D502680123DB039A430260E06B002814
:1027C000E9D081632E70E06BFEF71DFE0028E2D099
:1027D000E06B816B8847F8BD6878602804D02E7064
:1027E0002046FEF77BFFF8BD6F702E702046FEF787
:1027F0003CFFF8BD0000FFFFED250008152B000889
:1028000070B504461548E062002626632020254660
:1028100040356870AE706663C843400712D4042127
:102820002068406A626A1070606A401C6062208D95
:10283000002807D0401E2085608D401E6085606C9A
:102840000843606407212046FFF7E4FE216810205A
:10285000C8612E702046FEF7A1FF70BD0000FFFF8B
:10286000F8B504460E46206805682021C16107219D
:102870002046FFF7CFFE206841680122D2031143B2
:10288000416020684168344A114041602046FFF7AA
:10289000EFFEE843410406D4A06B00280BD000688B
:1028A0004068608507E0000405D4E06B002802D092
:1028B000006840686085F0434007042100280FDB72
:1028C0008E432068406A626A1070606A401C6062D1
:1028D000208D002804D0401E2085608D401E60851C
:1028E000608D002802D0606C084360640027276375
:1028F00025464035AF706763606C00280BD0616C73
:102900002046FFF713FF6878282803D13146204678
:10291000FFF776FFF8BDE06A104EB0420AD02046BD
:1029200000F01EF8E662202068702F702046FEF747
:1029300035FFF8BD6878222806D0202068702F70F7
:102940002046FFF7D2F8F8BD202068702F7020468F
:10295000FFF7CAF8F8BD000000E800FE0000FFFF26
:1029600070B5054600262C464034A67061782820B4
:1029700029290ED061782A290AD160702220286383
:1029800002212846FFF746FE26702846FFF7ACF8DE
:1029900070BD60702120286301212846FFF73AFEB0
:1029A00026702846FFF7A1F870BD0000F8B5044670
:1029B0000E46174620688069C043C00632D42546BB
:1029C000403508E0701C06D0FEF7FCFDC01BB0428D
:1029D0001ED8002E1CD020688069C0438006F1D428
:1029E00021681020C86120682026C6612046FFF7B4
:1029F0003FFE206841680C4A11404160606C042130
:102A0000084360646E700020A87028700120F8BD33
:102A1000616C20200143616468700020A8702870F8
:102A20000120F8BD0020F8BD00E800FEF8B5079FC2
:102A3000044616461D4619480090EAB20023204677
:102A400000F004F93A462046069900F061F90028A2
:102A500001D00120F8BD2846F5B201280BD021682D
:102A6000300A88623A462046069900F051F900285B
:102A700004D00120F8BD2068856201E020688562ED
:102A80000097002240212046069B00F0F3F8002822
:102A900001D00120F8BD0020F8BD0000002000801A
:102AA000F8B5079F044616461D4619480090C30214
:102AB000EAB2204600F0CAF83A462046069900F0ED
:102AC00027F9002801D00120F8BD2846F5B20128D9
:102AD0000BD02168300A88623A462046069900F0F9
:102AE00017F9002804D00120F8BD2068856201E0B4
:102AF000206885620097002280212046069B00F016
:102B0000B9F8002801D00120F8BD0020F8BD000070
:102B100000200080F8B504460F461546E06A2646B8
:102B20004036317801291DD001213170F943CB069F
:102B3000454AED43002B34DBEB0632D4638D102184
:102B4000002B11D02268D161616C042211436164B1
:102B5000002802D09105884269D1616C2046FFF7B8
:102B6000E5FD64E00220F8BD7378282B08D101232D
:102B70005B06984204D139462046FFF741FE56E0F5
:102B80007378292B0AD1904208D02068C161204671
:102B9000FFF76EFD2046FFF7E3FE48E02068C161C5
:102BA00045E04B071CD46B071AD4618D00290ED069
:102BB00004218F432168496A636A1970616A491C5C
:102BC0006162218D491E2185618D491E6185618D5E
:102BD00000292CD190422AD02046FFF7C1FE26E0E2
:102BE0000A0706D42A0704D439462046FFF751FDC8
:102BF0001DE089071BD4A90719D4618D00290DD0C8
:102C0000606A216800788862606A401C6062608D3A
:102C1000401E6085208D401E208508E001210906A8
:102C2000884201D0002802D12046FFF799FEF843E0
:102C3000800605D4A80603D439462046FFF710FEC7
:102C400000203070F8BD00000000FFFFF0B5059CCB
:102C500000684568660D8905890D054F120411430A
:102C60003E431943B54321430D434560F0BD000089
:102C7000FF63FF03F8B505460E4617461C4609E0FC
:102C8000601C07D0FEF79EFC0699401AA0420BD8A4
:102C9000002C09D028688169304688430FD0002075
:102CA000B842EDD00020F8BD696C20200143696472
:102CB000403568700020A87028700120F8BD012000
:102CC000EEE770B504460D4616460FE0324629463B
:102CD0002046FFF76BFE002801D0012070BDFEF7F3
:102CE00071FC801BA84208D8002D06D0206880699E
:102CF000C0438006EAD4002070BD616C20200143EF
:102D00006164403460700020A0702070012070BDAC
:102D100070B505460C46164611E032462146284657
:102D2000FFF744FE002801D0012070BD601C06D0D2
:102D3000FEF748FC801BA04208D8002C06D028686B
:102D40008069C0438007E8D4002070BD696C2020F2
:102D500001436964403568700020A8702870012024
:102D600070BD00001FB50A4600210391012109042E
:102D70000291012303AC0146009401930548FEF73C
:102D80000FFD002801D0FEF733FB6846007B04B03E
:102D900010BD0000100000203EB50C4601210904C2
:102DA0000223029101930092014601232246044826
:102DB000FEF7F6FC002801D0FEF71AFB3EBD00002E
:102DC000100000203EB50C460121090403230291A6
:102DD000019300920146012322460448FEF7E0FCDD
:102DE000002801D0FEF704FB3EBD000010000020CB
:102DF00017B583B00A46012109040291012305ACED
:102E00000146009401930448FEF784FD002801D098
:102E1000FEF7EEFA06B010BD1000002030B587B006
:102E2000142102A8FDF714FA1348C26A04210A43C8
:102E3000C262C26A0A400192C16A01242143C1628E
:102E4000C16A21400191C26A02210A43C262C06A7A
:102E500008400190094D002208212846FEF7ACFBEE
:102E600008200290039400210491059102A92846AC
:102E7000FEF7FEFA07B030BD00100240000400501B
:102E800010B5134811490160124941600021816069
:102E90000122C260016141618161C1610162FEF78D
:102EA0001FFC002801D0FEF7ADFA00210848FEF70C
:102EB0008FFB002801D0FEF7A5FA00210448FEF799
:102EC000AEFB002801D0FEF79DFA10BD0054004073
:102ED00010000020380F300010B50C480A4901607E
:102EE0004B21C901416000218160C16001610C2258
:102EF00042618161C16101624162FFF78DFA002880
:102F000001D0FEF77FFA10BD004400405C000020B5
:102F1000704700008307FF22DB0E9A408907090EE5
:102F2000994000280BDA0007000F0838830808488A
:102F30009B001818C36993430B43C3617047830810
:102F400004489B001818036893430B4303607047C1
:102F500000ED00E000E400E07047704710B5FEF7B8
:102F6000C5FD10BD10B598B034210BA8FDF770F960
:102F7000142106A8FDF76CF918216846FDF768F9D9
:102F80001B4801680322D2029143C21489180160D0
:102F900002200B9001210E9110210F91149000241A
:102FA000159440041690000117900BA8FEF7D6FF69
:102FB000002801D0FEF726FA0F2006900320079084
:102FC000089409940A94012106A8FEF793FE0028AC
:102FD00001D0FEF717FA0A20009002940494684684
:102FE000FEF7D2FD002801D0FEF70CFA18B010BD94
:102FF0000070004010480168821511430160C168EB
:103000000E4A1140C16001680D4A1140016081689B
:1030100049084900816001680122920491430160DE
:10302000C168FD2212049143C1600021016105497C
:10303000C003886070470000001002400C40FF8809
:10304000F6FFF6FE00ED00E010B5818CC90707D051
:1030500001684A6801235B049A43836A1A434A6001
:10306000818C890707D501684A6801231B049A43AC
:10307000C36A1A434A60818C490707D501684A68C8
:1030800001239B049A43036B1A434A60818C09070E
:1030900007D501684A680123DB039A43436B1A434F
:1030A0004A60818CC90607D501688A6801231B0321
:1030B0009A43836B1A438A60818C890607D501681D
:1030C0008A6801235B039A43C36B1A438A60818C2D
:1030D000490612D501684B6801221205046C93431E
:1030E00023434B60016C914207D101684A68032376
:1030F0005B059A43436C1A434A60818C090607D5E5
:1031000001684A680123DB04806C9A4302434A60E9
:1031100010BD0000F8B504460025E567FEF752FA39
:10312000074620680068134E00070BD501213B4677
:10313000002249052046009600F074F9002801D0CD
:103140000320F8BD2068006840070BD501213B46ED
:10315000002289052046009600F064F9002801D07D
:103160000320F8BD20206067A0676034257400202C
:10317000F8BD0000FFFFFF01F8B504461021002054
:1031800000250023226894462669A268E769324335
:1031900066693E43324366463668984F3E40164362
:1031A000624616602268566803273F03BE43E768FD
:1031B0003E435660A2692768914EBC46B74201D093
:1031C000266A32436646B6680B273F02BE43164363
:1031D000624696608B4A26688B4F964212D1FA68F7
:1031E0000C273A4006D0042A08D0082A04D00C2A1A
:1031F00018D105E0002115E0022113E0042111E0BF
:1032000008210FE07E4A96420CD1FA680327BF02DC
:103210003A4021D03715D21B22D0D21B1ED0BA4241
:1032200000D10821784A764F403ABE4240D1002969
:1032300018D002291AD004291FD0082921D001252D
:10324000002B08D0626850001018984202D8100372
:10325000984219D20125CBE00021E3E70221E1E702
:103260000421DFE7FEF716FE0346E9E71068C00613
:1032700001D5664BE4E7664BE2E7FEF72BFE03461B
:10328000DEE70123DB03DBE7190E1B0250080026F3
:10329000181871413346FCF741FF032109025D4ACA
:1032A000411A914202D82168C860A1E001259FE03F
:1032B0000126E369F603584FB34252D10B0000F0E8
:1032C00026F90906101A402D404040374000FEF70D
:1032D000E1FD616840004A088018FCF709FF80B2F0
:1032E00030E0FEF7E7FD616840004A088018FCF70F
:1032F000FFFE80B226E01068C00607D56168474A25
:1033000048088018FCF7F4FE80B21BE0616844486E
:103310004A081018FCF7ECFE80B213E0FEF7DAFD65
:10332000616840004A088018FCF7E2FE80B209E0BC
:1033300061680122480812048018FCF7D9FE80B2A7
:1033400000E0012501461039B94208D83249491C2C
:1033500001400007420F0A432068C26048E001258F
:1033600046E00B0000F0D3F809060F183B2B3B3B5F
:103370003B343B00FEF78EFD61684A088018FCF77D
:10338000B7FE80B22CE0FEF795FD61684A08801810
:10339000FCF7AEFE80B223E01068C00607D5616876
:1033A0001A484A081018FCF7A3FE80B218E06168BA
:1033B00017484A081018FCF79BFE80B210E0FEF791
:1033C00089FD61684A088018FCF792FE80B207E028
:1033D000616848088019FCF78BFE80B200E0012587
:1033E00001461039B94202D82168C86000E00125C1
:1033F0000020206660662846F8BD0000F369FFEFF4
:1034000000480040004400404010024000093D00D8
:103410000024F400FFFC0F00EFFF000000127A0010
:103420000048E801FFB581B004460E4617460A9DE4
:1034300009E0681C07D0FEF7C5F80499401AA842B5
:103440000CD8002D0AD02068C1693046884318D0B6
:103450000020B842EDD0002005B0F0BD2068016822
:10346000FF22A13291430160206881684908490028
:10347000816020206067A0670020603420740320F2
:10348000EAE70120E5E700000FB410B504A9074BF7
:1034900002AA039800F0AEF9044602A9002000F049
:1034A00045FD204610BC08BC04B018472D3F00085D
:1034B0002021020C01D010211046020A01D0104632
:1034C0000839020901D01046091F820801D01046B0
:1034D000891E420801D0881E7047081A7047F8B547
:1034E000040C8BB2264682B25E430D0C1046370C9C
:1034F0005843360480190021794116466E43370C33
:1035000036048019794126466E438919F8BD30B4D6
:103510007446641E2578641CAB4200D21D46635D70
:103520005B00E31830BC18474900CA020243100090
:1035300000D004204A0D01D001221043044A490D55
:10354000914201D102210843012800D10520704792
:10355000FF070000F8B504464F1EC80008382118C0
:1035600015461E46086849683A4606239A4310D015
:103570002A463346FCF7B8FF3A46D200083AA31869
:103580001A687F1E5B68FCF7FDFE06223B469343EC
:10359000EED1022F23D0042F11D0062F2FD12A468F
:1035A0003346FCF7A1FFE36AA26AFCF7EBFE2A466A
:1035B0003346FCF799FF636A226AFCF7E3FE2A466A
:1035C0003346FCF791FFE369A269FCF7DBFE2A466C
:1035D0003346FCF789FF63692269FCF7D3FE2A466C
:1035E0003346FCF781FFE368A268FCF7CBFE2A466E
:1035F0003346FCF779FF63682268FCF7C3FEF8BD29
:10360000002210B5134610460149FDF7EBF810BD36
:103610000000F03F10B5FCF7B5FE10BD002210B55C
:10362000134610461146FDF7DDF810BD10B5072111
:10363000024A00200907FDF74DF910BD0103000003
:10364000034A10B500201107FDF744F910BD000032
:1036500001FDFFFF02E008C8121F08C1002AFAD1CD
:1036600070477047002001E001C1121F002AFBD102
:103670007047000001490860704700000C000020FE
:10368000F0B51FB486B00998089A030D00210243D3
:1036900014D05148514A1818504305141198012864
:1036A00010981AD0281A401C00264D4F4D490096FC
:1036B00001910490002812DA444211E0119801248B
:1036C00049A3012801D11098C1430698119A84603A
:1036D0000360C26041600BB0F0BD4042E4E70446C5
:1036E000210500203F4A001C51410391029012E045
:1036F000E00707D032463B4601990098FCF7F4FEFC
:103700000191009032463B4610461946FCF7ECFE0C
:1037100006460F466410002CEAD10498039B00284B
:10372000029A0999089806DAFCF7DEFE019B009AD6
:10373000FCF7DAFE05E0FDF755F8019B009AFDF76E
:1037400051F804460E460022284BFDF70DF903D828
:103750000020C043014607E00022254B20463146A9
:10376000FCF710FEFDF7E0F8102409E0002C0ADB5E
:103770000A220023FCF7D2FC079B30321A55641E44
:1037800002460A43F2D11122641C079B121B1C192A
:10379000119B012B03D0012308430ED10AE00843FB
:1037A00004D0112010900020119077E71098151A7E
:1037B0006D1E0BE01098824202DD00236D1C03E0B9
:1037C000824201DA00236D1E002BEED0069811997B
:1037D0008260C16030C07EE701FCFFFF104D000039
:1037E000000014400000F03F300000000000F043F3
:1037F0000000E03FFFB597B00646002518E22528F7
:1038000077D100242746FD49049400E00443761C48
:1038100032780120203A90400842F7D130782A28A7
:103820000ED00222307801463039092916D8049981
:103830000A235943303940181443761C0490F1E7A9
:10384000189802C804911890002904DA0120400356
:1038500004434842049002200443761C30782E280A
:1038600014D1042004437078761C2A2809D11898B2
:10387000761C80C8189009E00A214F43303FC719D1
:10388000761C3078014630390929F5D930786C2812
:1038900010D006DC4C281AD068280ED06A2817D120
:1038A00004E0742813D07A2812D110E001204005DA
:1038B00004430CE00121090501E0032109050C4343
:1038C0007178814203D1012000052418761C761CF2
:1038D0003078119066280BD013DC58287DD009DC95
:1038E00000287BD04528F6D04628F4D047281AD1A6
:1038F000A5E118E0632835D0642870D0652812D17E
:103900009DE170286CD008DC6728F1D069287BD055
:103910006E280DD06F2806D1BAE073282ED07528F6
:1039200071D0782859D01A9A199990476D1C7EE168
:103930006002400F022809D003280DD004281898EF
:1039400001680DD00D60001D189070E11898EA17FD
:1039500001680D604A60F6E7189801680D80F2E78B
:103960000D70F0E718986A4601781172001D1890E2
:103970000020507202A80090012005E0189802C8AB
:10398000189000200091C04361070DD5002101E08F
:103990000199491C0191B94212DA8142F8DB009A7F
:1039A000515C0029F4D10BE0002101E00199491C90
:1039B00001918142FADB019A0099895C0029F5D1D5
:1039C000019904981A9B471A21463846199A00F023
:1039D00097FA0199401945180BE04FE02CE113E0EC
:1039E0004EE0009800990078491C00911A9A1999A4
:1039F00090470198401E0190401CF2D12146384664
:103A00001A9B199A10E137E00A20002100900191D9
:103A10006002410F022907D0189A01CA1892C217F2
:103A20009446032908D00AE01898C01DC108C900AF
:103A300005C91891944607E000B2C21794460429BC
:103A400002D140B2C1178C4600226146944506DA85
:103A50000A460021404291418C462D2102E0210579
:103A600004D52B216A461173012103E0E10701D03F
:103A70002021F7E7029155E00A200AE0102008E033
:103A8000102000900021042004430191082703E046
:103A900008200021019100906002410F022907D007
:103AA000189A01CA189200229446032908D008E007
:103AB0001898C01DC108C90005C91891944603E0B3
:103AC00080B2042900D1C0B200210291210729D57A
:103AD0001199702906D0009A1021019B4A401A437F
:103AE00005D00EE040216A461173012108E06146CD
:103AF000014306D030216A46117311995173022196
:103B00000291009A0821019B4A401A430AD161465A
:103B1000014301D1610705D530216A4611730121A6
:103B20007F1E02911199582904D035A10E910DA93B
:103B30000D910DE037A1F9E76146019B009AFCF772
:103B4000EDFA0E9B8C469B5C0D9A521E0D921370E3
:103B500061460143F0D10D9805A9081A2030019063
:103B6000600703D501200004844300E00127019889
:103B7000874201DD381A00E00020019900904118C9
:103B8000029809180498401A0490E00306D42146CC
:103B90001A9B199A049800F0B3F94519002706E01A
:103BA00003A81A9AC05D199990476D1C7F1C029852
:103BB0008742F5DBE0030CD521461A9B199A04983D
:103BC00000F09EF9451904E01A9A3020199990479F
:103BD0006D1C0099481E00900029F5DC08E00D9846
:103BE0000D990078491C0D911A9A199990476D1CEE
:103BF0000199481E01900029F1DC63E109280100C8
:103C00003031323334353637383961626364656652
:103C10000000000030313233343536373839414214
:103C2000434445460000000000F05AF94519761C4F
:103C30003078002800D0E2E528461BB0F0BD6007D0
:103C400000D406271898C01DC108C90048680A6832
:103C50000831C30FDB071891190001D09CA108E0BF
:103C6000210501D59BA104E0E10701D09AA100E064
:103C70009AA1430011985B08109165280CD006DCCE
:103C8000452809D046281DD0472841D141E0662863
:103C900018D067283CD13CE00021112F01DB112016
:103CA00000E0781C0191009008A911A8FFF7E8FC3A
:103CB000139905910021119A15927F1C1298019772
:103CC000009150E00120C00703900120019008A955
:103CD000009711A8FFF7D4FC139A149905920022BB
:103CE000119B009212981593059A0192002901D018
:103CF000104602E0791C40180190381A01D501984D
:103D000004E04042401E0090781C0190C01B0290CD
:103D100043E0012F00DA01270021112F01DD1120DE
:103D200000E038460191009008A911A8FFF7A8FC0F
:103D300013990591119A00211298159200910197FB
:103D400021070CD40599B94201DB019900E00191EA
:103D5000012904DD159A491E515C302906D0B8426C
:103D600001DA011D05DA0121029115E00199491ED0
:103D7000EDE7002805DC0099411800910199091A26
:103D800003E0019A411C914200DD01910099401A23
:103D9000401C02900120C0070390200706D402991E
:103DA0000198814202DB0020C04302900020694656
:103DB000C87707AF012103980337C907884224D089
:103DC000022011902B201290039800280CDA404218
:103DD00003902D20129007E00A210398FCF788F940
:103DE00030317F1E039039701199481E11900029BF
:103DF000F2DC03980028EFD1791E12980870307811
:103E0000202108404530BF1E387006A8C01BC01DC9
:103E1000039010980078002800D0012001994118E3
:103E20000298C0170918039809180498401A401EF0
:103E30000490E00306D421461A9B199A049800F0D6
:103E40005FF8451910980078002803D01A9A19993C
:103E500090476D1CE00324D521461A9B199A0498BB
:103E600000F04EF845191CE00098002807DB009987
:103E70000598884203DD1598405C199901E019996D
:103E800030201A9A904700986D1C401C00900298B0
:103E9000401E0290002804D11A9A2E2019999047AA
:103EA0006D1C0199481E01900029DDDC05E0387881
:103EB0001A9A7F1C199990476D1C0399481E03900C
:103EC0000029F4DC21461A9B199A0498ACE60000FC
:103ED0002D0000002B00000020000000000000006A
:103EE000F8B5044600251E461746880404D405E0AC
:103EF00039462020B0476D1C641EF9D52846F8BD10
:103F0000FFB50446002581B01E46C80301D5302701
:103F100000E02027880404D505E038460399B0471F
:103F20006D1C641EF9D5284605B0F0BD0A68531C07
:103F30000B6010707047000086B0FDF7DFFDFFF7E3
:103F400011F8FEF76BFFFEF79BFFFEF7C5FFFCF7CE
:103F500083FDFDF7BFF9FCF741FB02460B4635A197
:103F60003A48FFF791FA3948FCF77DF9374982B2B0
:103F7000012308461B038038FEF7B2FAFDF78CF8E0
:103F8000059033490598FCF775F9FCF727FB0446C3
:103F90000D4630490598FCF7AAF9FCF71FFB0646C9
:103FA0000F460598FCF71AFB02460B462AA1274844
:103FB0000197009603950294FFF766FA2348FCF7F1
:103FC00052F9224982B2012308461B038038FEF7CA
:103FD00087FA2C48FCF7EEFDFCF700FB02460B4687
:103FE00029A11A48FFF750FA1848FCF73CF917497D
:103FF00082B2012308461B038038FEF771FAFCF7F2
:10400000FBFFFCF7EBFA02460B4624A10F48FFF733
:104010003BFA0E48FCF727F90C4982B20123084607
:104020001B038038FEF75CFA7D20C000FDF711FA13
:104030008FE7000054656D70657261747572653A42
:1040400020252E3366202A430D0A0000DC000020C4
:10405000CA9F443A00007A44507265737375726562
:104060003A20252E33662050613B20252E336620D2
:104070006850613B20252E3366206D6D48670D0A20
:104080000000000020607749416C746974756465B4
:104090003A20252E3366206D0D0A000048756D69A3
:1040A000646974793A20252E33662025250D0A008F
:1040B000F0B51FB496B084460C460246199D189878
:1040C0000390490068006300490840080193002AF2
:1040D00001D0012600E000269E19FE4BF6185B1069
:1040E0009E422BD36E00039F0296002F00D0012723
:1040F000F719F84EF84BBE199E421FD3039E034694
:10410000F64F334309D03B469C4201D1002A04D0EC
:10411000019B002A05D0012604E0002039461BB08F
:10412000F0BD00269E19EE4B9E4207D8039F029ECB
:10413000002F00D00127F6199E4207D92B46604672
:104140002146189AFFF766FA1BB0F0BD0023002C39
:1041500029DAE44EB04226DAE34EB04201DB022314
:1041600021E0DE4EB0421EDBE04E070DBE19142EDC
:1041700009DD3427BF1B039EFE400196BE40039F0E
:10418000BE420BD00FE0039F002F0CD11427BF1BA2
:104190000646FE400196BE40864204D1019BDE07E2
:1041A000F60F02239B1B0E46164318D1002D16DA7C
:1041B000002C03D0022B01D0012B06D00220FFF7E8
:1041C00059FAFFF71DFA1BB0F0BD0220FFF752FAB3
:1041D000FFF716FA0122D20751401BB0F0BD039E33
:1041E000002E61D1BF4EB04220D1C148844201D1DE
:1041F000002A08D0B948814209DB002D10DB18984D
:1042000029461BB0F0BD0020B4491BB0F0BD002D05
:1042100006DA01222946D207189851401BB0F0BD9A
:10422000B4497944086849681BB0F0BDAB4FB84247
:1042300025D1002D1FDA002904D0B14212D1002A65
:1042400009D018E0002A72D1A649E20F0020D20757
:1042500011431BB0F0BD0020E20F0146D20711430D
:104260001BB0F0BDB14206DA234600203946FCF708
:10427000B9FA1BB0F0BD104621461BB0F0BDB142EB
:1042800012DA0126B607B54203D123461046194675
:10429000FEE3994EB54207D1261E05DB1046314696
:1042A00000F004FC1BB0F0BD67007F081646002A32
:1042B00040D100290AD08B4A914229D1002C0EDD31
:1042C000002D1CDB002011461BB0F0BD022B16D0C8
:1042D000002C14D0012B12D1002C14DB0FE0002C89
:1042E00028DA002D09DB012B03D000207D491BB00B
:1042F000F0BD002081491BB0F0BD012B03D0002090
:1043000001461BB0F0BD00200121C9071BB0F0BD64
:10431000724A91420ED1002C01DA002B17D0022BE9
:1043200006D00020C043FCF7EBFA1BB0F0BD90E2D2
:104330000120F8E7E217521C94461A4307D00022E6
:104340000892664C62465B1E1A4307D009E00120C2
:10435000FFF790F9FFF762F91BB0F0BD0022644C43
:104360000892674A90427DDD664B674A98421FDD9E
:10437000914202DC002D05DB4DE05848814217DBFD
:10438000002D48DD0220FFF775F9FFF74FF90546CC
:104390000E460022534B21460898FCF7A5F8084624
:1043A00071004908C00FC007014328461BB0F0BD8B
:1043B000914215DA002D2EDA0220FFF75BF9FFF7A4
:1043C00035F905460E460022464B21460898FCF773
:1043D0008BF872005208C80FC0070243114617E05D
:1043E0003E4B994223DD002D15DD0220FFF742F9F7
:1043F000FFF71CF905460E4600223A4B2146089865
:10440000FCF772F8084671004908C00FC007014365
:1044100028461BB0F0BD0220FFF72CF9FFF710F97A
:1044200049004908E20FD20711431BB0F0BD00223A
:1044300030463946FCF74AF8012205460E46D2437B
:10444000FCF748FA314A324BFCF746F82A46334625
:10445000FCF74AF80022284BFCF73EF807462A46AC
:10446000334600E064E0039110461946FCF73CF83F
:104470003A46039BFCF738F8074603220991520796
:10448000244B28463146FCF72FF807910C90224A1E
:10449000204B38460999FCF727F8074601911F4A37
:1044A0001F4B28463146FCF71FF83A46019BFCF7A4
:1044B0000DF807460B460246099107990C98FBF741
:1044C00061FF00250E462846079B0C9AFBF7FEFF6E
:1044D0003A4627E0FFFF1F00FFFF0F000000F03FFC
:1044E0000000E0FF0000F07F0000404301FCFFFF00
:1044F0000000F0BF7A0900000000E03F0000F0FF7C
:104500000000E0410000F043FFFFEF3F55555555D7
:104510005555D53F4715F73FFE822B6544DF5DF8C3
:104520000BAE543E099BFBF7D7FF02460B4652E108
:10453000012500202D05A94207DA352230463946EB
:10454000FCF7C8F906463420C0430A151218FE4885
:10455000101803900803FD49000B01430F46FC4966
:10456000884201DC002003E0FA49884202DA012097
:10457000119005E0002011900398401C7F1B0390D0
:1045800011980597C200F4480F9278448018436848
:104590000268394630460D930292FBF797FF079168
:1045A0000C9030460D9B029A0599FBF7EBFE0246F4
:1045B0000B460020E549FCF715F909910490079B8B
:1045C0000C9AFBF791FF129000201090E3480D46E3
:1045D000784400680E90012178104907084311992A
:1045E0000D9B890440180121C90447183946029AD5
:1045F0000E98FBF76BFF3246059BFBF76DFF0246FB
:104600000B4629461098FBF76FFF064602913B4682
:1046100029460E9A1098FBF767FF079B0C9AFBF749
:104620005BFF3246029BFBF751FF099B049AFBF7A5
:104630005BFF0591129A0A902B4610461946FBF72C
:1046400053FF06460246C6480F460B4606217844ED
:10465000FEF780FF32463B46009104901046194613
:10466000FBF742FF009B049AFBF73EFF06460F460E
:104670002B461946129A1098FBF784FE059B0A9A5E
:10468000FBF732FF32463B46FBF77CFE109A079160
:1046900004902B4610461946FBF726FFB14E002228
:1046A000334609910290FBF76DFE079B049AFBF7D6
:1046B00069FE00200746024633460091FBF706FFDD
:1046C000099B029AFBF702FF079B049AFBF704FF82
:1046D00006460D913A462946009B1098FBF704FFC9
:1046E00007910C902B463046129A0D99FBF7FCFE71
:1046F00005460E463A46009B05990A98FBF7F4FEDC
:1047000033462A46FBF73EFE02460B460746099112
:1047100007990C98FBF736FE00250E462846079BA6
:104720000C9AFBF7D3FE3A46099BFBF7D5FE0746EA
:104730000722099152078C4B31462846FBF7D4FEDD
:1047400007910090894A884B38460999FBF7CCFEBF
:1047500007460191864A874B31462846FBF7C4FE3F
:104760003A46019BFBF70EFE834B7B440F9A9B1846
:104770001A685B68FBF706FE029009910398FCF744
:10478000BFF805910490099B029A07990098FBF7DE
:10479000F9FD7A4B7B440F9A9B181A685B681746A1
:1047A0000393FBF7EFFD059B049AFBF7EBFD0E4629
:1047B0002846059B049AFBF789FE3A46039BFBF7C4
:1047C00085FE079B009AFBF781FE099B029AFBF787
:1047D00083FE02460B46199900200C900F4618984C
:1047E000FBF782FE029104903B460C9A19991898A7
:1047F000FBF76CFE2A463346FBF776FE029B049AD3
:10480000FBF7C0FD09910E902A46334639460C98B5
:10481000FBF76AFE06460F46099B0E9AFBF7B2FDB0
:10482000574A0D46914220DB5242AA18024310D14A
:1048300032463B46FBF74AFE04900391514A524BE5
:1048400009990E98FBF79EFD039B049AFCF78CF8E0
:104850001ED20220FEF70EFFFEF7E8FE49004908CF
:10486000E20FD20711431BB0F0BD6A00474B52085C
:104870009A420DD3464AAA18024300D0CBE53246ED
:104880003B46FBF723FE099B0E9AFCF76DF8F5D922
:104890006800002340082C490393020D3D4B521839
:1048A000984223DD01200005521CD04042195000DF
:1048B000400D401838497944096813468C463749F9
:1048C000C1408B4312030121120B09055118142218
:1048D000101AC1400391002D01DA4842039062464C
:1048E00030463946FBF7F2FD06460F4632463B4658
:1048F00009990E98FBF746FD00252A46284B2846C5
:104900000591FBF7F1FD07910C90264A264B2846AE
:104910000599FBF7E9FD0091029032463B46284697
:104920000599FBF7D3FD099B0E9AFBF7D5FD1F4AAE
:104930001F4BFBF7D9FD009B029AFBF723FD0746AF
:104940000B460246099135E001FCFFFF0000F03FF5
:104950008E9803007AB60B008A050000CC05000093
:10496000F60400000000084009C7EE3FFD033ADCF2
:10497000F5015B14E02F3EBECA0300009003000067
:1049800000009040FE822B654715973C00CC90407C
:1049900000346F3F0000E03FE6020000FFFF0F0021
:1049A000432EE63F396CA80C615C20BEEF39FAFE5D
:1049B000422EE63F07990C98FBF7E4FC05460E46AD
:1049C000079B0C9AFBF782FD3A46099BFBF784FD97
:1049D00009912A4633460E9010461946FBF784FD8E
:1049E000074602462F480B46059105217844FEF7FD
:1049F000B1FD3A46059BFBF777FD2A463346FBF7A8
:104A00006BFD0746019128463146099B0E9AFBF73C
:104A10006BFD099B0E9AFBF7B5FC012304910C90EA
:104A200000229B0738460199FBF750FD05910E9037
:104A30003A4628463146019BFBF756FD059B0E9AE8
:104A4000FBF7D0FE049B0C9AFBF740FD2A46334649
:104A5000FBF73CFD0022144BFBF73EFD0646039896
:104A60000D46000541190915002912DC304629467A
:104A7000039AFBF72FFFFEF757FD042801D1FEF73D
:104A8000DFFD30462946039AFBF724FF064601E086
:104A900004E029180B46324621460898FBF724FD0E
:104AA0001BB0F0BD880100000000F03FF8B50646DD
:104AB0000C46FBF77FFF051E0F4600D00120014387
:104AC00049000B484908411AC90F0DD0002E01D0EA
:104AD000012100E000210C4361004908401AC00F89
:104AE00002D10120FEF7C6FD28463946F8BD000078
:104AF0000000F07F0000000000000000010203043D
:104B000006070809030406080C10182030000000EE
:104B10000001020304000000000000000000F03F5C
:104B2000000000000000F83F00000000000000004E
:104B30000000004003B8E23F000000000000000059
:104B400006D0CF43EBFD4C3E033333333333E33FE7
:104B5000FFAB6FDBB66DDB3F4D268F515555D53F13
:104B600001411DA96074D13F65DBC9934A86CD3FE1
:104B7000EF4E454A287ECA3F3E5555555555C53FCF
:104B800093BDBE166CC166BF2CDE25AF6A56113FC1
:104B9000F16BD2C541BDBBBED0A4BE726937663EC3
:104BA0000000000000000000C84B000800000020CA
:104BB0001000000054360008D84B000810000020F8
:104BC00058050000643600080000000000000000E6
:084BD0000000200000000000BD
:04000005080000C12E
:00000001FF
